:020000022000DC
:1060000000000120756302005D6302005F6302000F
:106010006163020063630200656302000000000028
:1060200000000000000000000000000067630200A4
:1060300069630200000000006B6302006D630200F0
:10604000D9A302006F630200D9A902006F630200A6
:106050006F6302006F63020089A8020045B7020067
:1060600099B50200A9B50200B9B502006F6302003C
:106070006F6302006F6302006F6302006F630200D0
:106080006F630200517902006F6302006F630200C8
:106090006F6302006F630200351103006F6302003B
:1060A0006F6302006F6302006F6302006F630200A0
:1060B0006F6302006F630200000000000000000038
:1060C0006F6302006F6302006F6302006F63020080
:1060D0006F6302006F6302006F6302000000000044
:1060E00000000000000000000000000000000000B0
:1060F00000000000000000000000000000000000A0
:10610000000000000000000000000000000000008F
:10611000000000000000000000000000000000007F
:10612000000000000000000000000000000000006F
:10613000000000000000000000000000000000005F
:10614000000000000000000000000000000000004F
:10615000000000000000000000000000000000003F
:10616000000000000000000000000000000000002F
:10617000000000000000000000000000000000001F
:10618000000000000000000000000000000000000F
:1061900000000000000000000000000000000000FF
:1061A00000000000000000000000000000000000EF
:1061B00000000000000000000000000000000000DF
:1061C00000000000000000000000000000000000CF
:1061D00000000000000000000000000000000000BF
:1061E00000000000000000000000000000000000AF
:1061F000000000000000000000000000000000009F
:10620000354936480A1A02D0072291438D4634494F
:1062100034480A1A06D00722914381F309880222E2
:1062200082F3148830483149314A00F044F831484B
:106230003149324A00F03FF831483249324A00F0E1
:106240003AF832483249334A00F035F83248334997
:10625000334A00F030F833483349344A00F02BF821
:1062600033483449344A00F026F83448344900228F
:1062700000F02CF833483449002200F027F8334866
:106280003349091A082902DB002202604160314AC1
:1062900090471F481F49884205D00268043003B464
:1062A000904703BCF7E700208646EC46002000211B
:1062B000294A9047FEE7884207D0521A05D0037852
:1062C00001300B700131013AF9D17047884202D098
:1062D00002700130FAE770470000012000E0002062
:1062E0000000012000000120A0460300EC2A00204D
:1062F000702B0020D0630200D0630200C81D030091
:10630000A0460300EC2A0020EC2A0020681F0300AE
:10631000681F0300681F0300681F0300681F030055
:10632000681F0300681F0300681F03009F460300E7
:1063300024470300702B0020702B0020702B0020BE
:10634000E8430020E8430020E8430020E843002021
:10635000E86300209D63020085C30200FEE7FEE7BC
:10636000FEE7FEE7FEE7FEE7FEE7FEE7FEE7FEE705
:1063700000F002B8FFF7FCBF0F484FF00701884359
:1063800085460E4880470E48016841F4700101605F
:10639000BFF34F8FBFF36F8FFFF732BF09480A4932
:1063A0000A4A884207D0521A05D0037801300B7090
:1063B0000131013AF9D1704700000120CD9E020061
:1063C00088ED00E0541F0300D82A0020EC2A0020AA
:1063D0007047000007B5044B0093044A402300F0C7
:1063E00032F803B05DF804FBF1630200712B00206A
:1063F0002DE9F84388461446B2B10F4B0F4E0325E2
:10640000002743F00109224608EB0701002006F0AF
:106410008DF90744241A48B933782BB14FF47A40E8
:10642000C847013D02D13570BDE8F88301233370C0
:10643000002CE8D1F8E700BF701F0300702B00208C
:10644000704706F0A7B9F0B595B01D461646084648
:106450000C4601F0A3FE1A9B0D93CDE908650025BB
:106460002B46082205A920460A958DF82C500C953C
:1064700001F0B1FE079B0293069B03939DF8143035
:106480008DF8115003F00302012A1DD1BDF814202C
:10649000059DC3F3C203C2F383168DF81030B2001A
:1064A00008230EA9204601F096FEC5F3952508ABFA
:1064B0000093324602AB0EA9284600F081FB20462D
:1064C00001F070FE15B0F0BD022AF8D1BDF81650EB
:1064D000C3F3C203C5F389158DF810300827082DC2
:1064E0002E4628BF08263B4632460EA9204601F01C
:1064F00072FEAD1B08AB02AA31460EA8374400F06D
:10650000C3FB002DEBD1DAE708B5FFF79AFF04488B
:10651000042100F0BFFA034B01225A7108BD00BFED
:10652000441F0300EC2A0020037813F0040216D065
:1065300003F00303012B03D0022B09D00120704785
:106540000A6800880232C0F3831002440A60F5E74B
:106550000B684288023303EB92130B60EEE71046A0
:10656000704700002DE9F04F87B000230446861CD9
:106570000DF107000F4615468DF8073001F07AF847
:10658000404A51683960936803F580735B1A9246FC
:1065900002F21C4702F5836902F21448B3421AD38F
:1065A0000020002D69D004F00F039B0143F0050388
:1065B00063F30F00DAF80430DAB203321E444AF80B
:1065C00022009DF80700CAF8046001F077F8012066
:1065D00007B0BDE8F08F0121384601F00BFB4846BB
:1065E00001F023FB404601F020FBDAF8080002909E
:1065F000C0B203300AEB800002A9FFF795FF029BAF
:1066000030BBDAB20AEB8202D16803919A1C0133E3
:10661000DBB20AEB83030292D3F80CB001F0030360
:10662000012B22D0022B15D08346404601F000FBFF
:1066300010B1029BCAF808305946384601F0DAFA20
:10664000DAF80830DAF8042003F580739B1AA5E71E
:10665000D8B2CEE7BDF80E30C3F3891303334FEA47
:106660001B4B02EB93030293DFE7BDF80C30C3F33F
:1066700083134FEA1B4B1344F5E7A40544F00600CF
:1066800098E700BF842C0020064B074810B5002275
:106690001A7001F03CFD044610B9044801F0E4FD15
:1066A000204610BD842C0020481E0300AC1F0300B0
:1066B00030B50A4C71B10A4A0A49121BD2080023AC
:1066C0009A4201D1002030BD31F82350854202D0DA
:1066D0000133F5E7034654F83300F4E75C1E03008A
:1066E000441F0300EC2A0020094B013903EBC000D2
:1066F000032909D8DFE801F00A02040604207047E4
:106700000079704740797047002070470220704739
:106710005C1E0300154B1B7837B504460BB918B93E
:106720000024204603B030BD0AF0E9FF013000909C
:1067300001230F486A4601A901F09FFD0546002884
:10674000EED12146009A01980AF05BFFDDE90023B3
:106750001344074803F8015C009901F0C6FD009955
:10676000034801F0D9FD019CDBE700BF842C002029
:10677000AC1F0300034BD3E90130C31A5842584100
:10678000704700BF842C00202DE9F04186B0FFF750
:10679000F1FF0546002840F0E680744CC4F8180468
:1067A000BFF34F8FA3680293DBB2033304EB830084
:1067B00002A9FFF7B9FE029B18B1D4F81824002AE9
:1067C00055D0DAB2991C013304EB8202DBB204EB40
:1067D0008303D268DB68049302F00303022B039265
:1067E00002914FD1BDF80E306148C3F38917502F85
:1067F0003E4628BF502666F38F1306F10801ADF818
:106800000E3001F09CFC0546002800F0978001F056
:10681000C5FC002303A90822284601F0D2FC0299F6
:10682000CB43DBB20133C9B20331B6EB830F4FEA7E
:10683000830804EB810122D908234246A6EB08060F
:10684000284601F0BEFCF6B24A4908F10803324678
:10685000284601F0B6FC029B033703EB970702972B
:10686000D4F81834002B41D1D4F8106451E0626898
:106870009A4299D8A260284606B0BDE8F081082364
:106880003246E5E7012B59D1BDF80C303848C3F347
:106890008311062928BF062161F38913023189007B
:1068A000ADF80C3001F04BFC0546002846D001F055
:1068B00075FC0023082203A9284601F082FC00266B
:1068C000BDF80C20C2F38312B300964203F1080313
:1068D000C6D202994A1CC9B20331029204EB81016B
:1068E0000422284601F06DFC0136E9E7284601F054
:1068F00059FCFFF73FFF80F00100C5B2BBE7F3682A
:106900005B7923B1336829461B6830469847F368A2
:106910001E68002EF3D1284601F044FC0DF107005B
:106920008DF8076000F0A6FED4F818340BB9029B6E
:10693000A3609DF8070000F0C1FEDAE7D4F8104428
:1069400054B90D4B0D480E49C01AC008000440F060
:10695000020000F05DF8CCE7236820469B6898476A
:10696000E3681C68ECE7002585E700BF842C002065
:10697000481E0300902C00205C1E03009C1E030098
:10698000941F03002DE9F34704460E46924601A9E1
:10699000012218469946FFF7E5FD1B4F10B3019DF4
:1069A0004FF00008AA1CC84508EB020123D1174884
:1069B000002101F0D8F880F31000000440EA1440F0
:1069C000E4006B1C04F03804DBB2EDB244F00104C7
:1069D00007EB8303033544EA881444EA8624D8602D
:1069E00047F825403B781BB1FFF7CEFE0028FBD1CE
:1069F00002B0BDE8F087C9B207EB81015AF8283030
:106A0000CB6008F10108CEE7842C0020A0300020E4
:106A100000231A46FFF7B6BF07B50123019201AA6A
:106A2000FFF7B0FF03B05DF804FB07B5CDE9002325
:106A300002236A46FFF7A6FF03B05DF804FB1FB50B
:106A4000CDE90123069B039301AA0323FFF79AFFD5
:106A500005B05DF804FB1FB5CDE90023069B02934A
:106A6000079B03936A460423FFF78CFF05B05DF88C
:106A700004FB7FB5CDE90123089B0393099B049395
:106A80000A9B059301AA0523FFF77CFF07B05DF879
:106A900004FB000030B50F49D1F810240346002054
:106AA000144634B9DC6820714AB9C1F81034226048
:106AB00030BDE4682579854206D02468F1E7D268C4
:106AC000116821601360F3E701300A28E8D14FF024
:106AD000FF30EDE7842C0020084A38B50123D2F8B6
:106AE000104413701D4604B938BDE3685D71236816
:106AF00020465B689847E3681C68F4E7842C002014
:106B000007B503460846197A052911D05B7A2BB1DF
:106B1000094A0A49019001F0F1F8019808490190E9
:106B200001F0ECF8019803B05DF804EB01F0DBB87C
:106B3000002AF8D0F2E700BFB81F0300FF380300B7
:106B4000B22A030030B5C38885B004460D4633B180
:106B5000144A00921449154A284601F0CFF8217AC8
:106B600005291DD0637A4BB1A088FFF7BDFD104BFE
:106B7000104953F82020284601F0C0F8227A0E4B25
:106B8000A08853F8222003920021FFF791FD039A79
:106B90000A490346284605B0BDE8304001F0AEB8CA
:106BA00005B030BDB81F0300C51F0300BD1F0300A3
:106BB00044200300FF38030068200300DD1F0300AA
:106BC0002DE9F04385B01F460C9D002395F80C90ED
:106BD0002B7306460C46904629463846FFF7B2FF0F
:106BE000B8F1060F09D8DFE808F00412181F28339F
:106BF00040003146284601F081F8002229463846F7
:106C0000FFF77EFF85F80C9005B0BDE8F0832268A1
:106C10003146284601F072F8EFE7D4E90023314607
:106C2000284601F06BF8E8E7A36800933146D4E901
:106C30000023284601F062F8DFE7E3680193A368C8
:106C400000933146D4E90023284601F057F8D4E7F1
:106C500023690293E3680193A36800933146D4E962
:106C60000023284601F04AF8C7E7636903932369C4
:106C70000293E3680193A36800933146D4E90023AB
:106C8000284601F03BF8B8E708292DE9F74F804680
:106C90000E4617461C463CD8002593F80C901D73F1
:106CA00019461046FFF74EFFDFF888A0DFF888B0DE
:106CB000AE4231D918F805205946204601F01EF899
:106CC0000135082DF4D11949194DDFF870A020467F
:106CD00001F014F84FF0000B5E4522D918F80B2094
:106CE0007E2A05D8104601920AF022FC019A00B9CA
:106CF0002E225146204601F001F80BF1010BBBF1A9
:106D0000080FE9D1012221463846FFF7F9FE84F841
:106D10000C9003B0BDE8F08F5146204600F0EEFF26
:106D2000CEE72946204600F0E9FFE6E7F11F030021
:106D3000EF1F0300ED1F0300E71F0300F31F030015
:106D4000C30710B507D4F023054A4008145C23405C
:106D50001943115410BD0901C9B20F23F4E700BF54
:106D60007031002030B5094B1C78094B196800239D
:106D70009C4202DC0022104630BD11F8335085429F
:106D800001EBC302F7D00133F2E700BF3C31002032
:106D90008031002013B504460191FFF7E3FF38B1BD
:106DA00043682BB10199204602B0BDE81040184756
:106DB00002B010BD034B044819680022490800F0D6
:106DC0005CBA00BF403100204831002010B5C0B28D
:106DD000FFF7C8FF0446007803F04CFD63785A1EA5
:106DE00053425341834208D1044BD3E90023134358
:106DF00003D1BDE81040FFF7DDBF10BD68310020B2
:106E000037B54308354AD35CC2074CBF1B0903F0B2
:106E10000F0304460D46042B35D8DFE803F00325A5
:106E20002C383C0079B30121FFF78AFF00230DF1D4
:106E300007008DF8073000F01DFC0120A4F12003AD
:106E4000C4F12001264A20FA01F100FA03F30B43B2
:106E5000A040D2E9004120430B43C2E900039DF862
:106E6000070000F02BFC0EE0002918BF022120468D
:106E7000FFF766FF07E041B10321FFF761FF012142
:106E80002046FFF787FF03B030BD0121EFE700295F
:106E9000F9D10421EBE709B10321E8E7FFF750FF3F
:106EA00029462046FFF776FF0DF107008DF80750C1
:106EB00000F0E0FB0120A4F12003C4F12001084A06
:106EC00020FA01F100FA03F30B43A040D2E900419C
:106ED00024EA000021EA0303BFE700BF703100206D
:106EE000683100202DE9F041124E134F0024337811
:106EF000A34208DC114BD3E90023134318D0BDE8AB
:106F0000F041FFF757BF3D6805EBC40815F83400A2
:106F100003F0B0FC98F801305A1E53425341181A3E
:106F20004142414115F83400FFF76AFF0134DEE7C2
:106F3000BDE8F0813C310020803100206831002024
:106F4000092AF7B505460C4616463CD903F0E6FA81
:106F5000D8B11E4B1E481D601E4B1F4F1C701F4B8F
:106F6000002110221E600AF075FB1D4B002000213D
:106F7000C3E90001013CE4B20326FF2C0BD1194AFE
:106F80001948002100F06EF903E003F089FA0028A7
:106F9000DFD003B0F0BD9DF8063015F834008DF851
:106FA000046005EBC40223F007038DF8063001A945
:106FB00093788DF805303A4603F0A6FB013CE4B225
:106FC0000028DAD0E5E70720E3E700BF80310020A2
:106FD000703100203C310020CD6D02004031002096
:106FE00068310020E56E02008820030070B5084D6E
:106FF000084E00242B789C4201D3002070BD3368DA
:10700000012113F8340003F0F1FB0134F2E700BF73
:107010003C310020803100201FB50021039001AADF
:1070200044F20100CDE9011100F004F805B05DF86B
:1070300004FB000010B572B6FFF74EFDFFF7A4FB8E
:107040000028FBD1104B114C1149E41AE408240428
:1070500044F00100FFF7DCFC0E4B1B68DB0700D59A
:1070600000BE0D4944F00200FFF7D2FCBFF34F8F82
:107070000A490B4BCA6802F4E0621343CB60BFF3CA
:107080004F8F00BFFDE700BF5C1E03009C1E030086
:107090008C200300F0ED00E09820030000ED00E0FC
:1070A0000400FA0549B152B1531E1A4007D182605B
:1070B00001608380C260104670470E20704709202F
:1070C000704710B58468C2688388121B934208D346
:1070D000C26813400268D154C3680133C360002002
:1070E00010BD0420FCE78268C3689A420AD0826817
:1070F000838813400268D35C0B708368013383601C
:107100000020704705207047D0E90223D1E9020131
:10711000994208BF90422CBF012000207047000018
:1071200008B50B4800F0FDFB0A4B0B49D3E90023DF
:107130001218D1E9000143F100038B4208BF8242DB
:1071400003D212F1807243F100031046194608BDC4
:10715000F42A0020883100200032002037B505468F
:107160000C460A4801A900F032FC60B10570446089
:1071700001A9064800F055FC18B1054800F0D6FBFF
:10718000002003B030BD0420FBE700BFEC3100203D
:10719000F42A002038B5184B1B78044613B9002593
:1071A000284638BD0028FAD0037F03F0FF05002BE6
:1071B000F5D0FFF7B5FFD4E90223994208BF90420A
:1071C00014D3236903B92377D4E90530984721699B
:1071D0000029E4D0237F03F0FF05002BDFD0D4E9A2
:1071E0000223521843F10003C4E902230348214655
:1071F00001F0B9F8D4E700BF90310020B4200300BB
:1072000013B5114B114918680190082310485822F2
:1072100000F0A8FB044698B90E4A0F4801A900F0F7
:1072200071FA044660B90C48012100F05DFB0123AE
:107230000A4A0948194600F0BFFA094B01221A70A0
:10724000204602B010BD00BFB020030094310020E2
:10725000EC310020C5720200F42A0020FFFF7F00FD
:10726000903100203AB103685A614A1E514251419F
:107270001961002070470720704738B5037F044626
:107280000D4683B98261FFF74BFF2369401941F135
:107290000001C4E9020103B1256121460020BDE8D7
:1072A0003840FFF75BBF002038BD0023014603775D
:1072B0000120FFF753BF0000014800F032BB00BFC0
:1072C000F42A00202DE9F04F85B0804600F014FB31
:1072D00040B15A4AD2E9003113F1807341F1000103
:1072E000C2E900310021404600F015FB38B1544E90
:1072F000336823B13068FFF74DFF0023336001216D
:10730000404600F008FB20B1FFF70AFF4D4BC3E9F0
:1073100000014D484A4F4D4EDFF8389103A900F067
:1073200090FB002845D1DFF82491454EDFF828A1D5
:10733000484601F02EF83368002875D07BB13368D9
:10734000D0E90201D3E90223994208BF90422DD22D
:1073500033681B7F1BB13168484601F004F848468A
:1073600001F011F8D0E902B307460193FFF7D8FE08
:10737000019BBBEB000463EB0105012C75F10003DD
:1073800045DBB4F5350F40D3FFF796FF304A024492
:107390004FF496030021504600F02EFA00283ED10B
:1073A000336813B9404600F0FFF9376005B0BDE817
:1073B000F08F0378012B1DD0022B09D14FF0000A6A
:1073C000304600F0E0FF002834D080F81CA0F7E73A
:1073D0003BB941680B7F23B901230B77304600F09E
:1073E000C2FF03A9184800F057FB03A9164800F094
:1073F00028FB96E741683B68994202D100233B6035
:10740000EFE7304600F0C8FFEBE7BA68C0E70021BD
:10741000504600F076FA3846FFF7BCFE01E00D2832
:10742000F9D00023336083E7002BBFD1404600F042
:10743000BFF9BBE7012389F80030D2E7883100208B
:107440000832002000320020EC310020B42003007C
:10745000FFFFB40090310020F42A00200648074ABC
:1074600003780749D35C012213B1043003F004BF51
:107470000C3003F0CDBC00BFFC2A0020903400206B
:10748000343200200648074A03780749D35C0122BA
:1074900013B1043003F09CBE0C3003F067BC00BF96
:1074A000FC2A0020903400203532002037B50578C2
:1074B000012D0BD0022D2ED065B91E491E48FFF7B5
:1074C00012FE002832D1FFF7DDFF03E0037A1BB97B
:1074D000FFF7C4FF03B030BD4368184C197820464D
:1074E000FFF7EFFD80B18DF800500190144B684616
:1074F0001B689847A168E368A2885B1A9A42E7D2A2
:10750000104B01221A70E5E7A268E3689A42F1D0B5
:107510008DF80000EAE7C3688DF800500193FFF78B
:107520009DFF074B68461B689847D3E703238DF8F8
:107530000030F6E7353200202432002010320020DF
:107540000C32002020320020F0B51F46234B89B0BA
:1075500004461A600D4600293DD08A8820480968F3
:10756000FFF7A0FD002834D1AA89A9681D48FFF7BC
:1075700099FD00282DD11C4E0FCE6D460FC596E803
:107580000F0085E80F0063690693237C174A1848AB
:107590008DF81C70003B18BF01238DF81430637CFC
:1075A000002B14BF0E2300238DF81530E3680293DF
:1075B000A36803932368019369466368009302F00C
:1075C00091FE30B90B4B18702368013301D0FFF7DF
:1075D00045FF09B0F0BD0720FBE700BF0C320020DB
:1075E0001032002024320020C0200300AD740200BD
:1075F000FC2A00202032002070B5084D01460848C2
:107600002E78FFF770FD044636B100232B70FFF78C
:1076100025FF08B1FFF700FD204670BD2032002095
:107620001032002010B501460E48FFF74AFD04460F
:10763000A8B90D480D4A0378D35C63B1043003F058
:107640000FFE60B90A490748FFF74DFD38B9BDE89C
:107650001040FFF717BF0C3003F0CEFBF1E72046D8
:1076600010BD00BF24320020FC2A002090340020EE
:107670003532002070B5EFF3108672B60C4A94686C
:1076800001239CB993600B4B0B4DD3F8801029401C
:107690001160C3F88050D3F8841051604FF0FF326E
:1076A000C3F88420047006B962B670BD0370FAE7AF
:1076B0003832002000E100E0FC06FFBD084B9A686C
:1076C00010B55AB150B9EFF3108172B6054A1C6873
:1076D00014605C685460986001B962B610BD00BF68
:1076E0003832002000E100E0435882B03BB1002373
:1076F000435043580193019B012002B07047184644
:10770000FBE70000F8B5204B4479204D43F82420D6
:107710001F4A204B05EBC4049B1A2279DB081B048B
:1077200032B143F002001C49FFF772F90820F8BD9E
:1077300002680C88C2F8084590F904608A780479D8
:107740005201002ED2B219DB14498F1987F8002399
:107750000122760904F01F0402FA04F441F82640DD
:10776000427905EBC201012445F832000C7143F067
:1077700003000B49FFF74CF90020D8E7094904F052
:107780000F040A55ECE700BF4C32002044320020C1
:107790005C1E0300AC1E0300E020030000E100E0DB
:1077A0000221030014ED00E0036801221A60704713
:1077B000036801225A60704773B501F15005AD00AE
:1077C0000068ADB24FF480348C400026C0F8084306
:1077D000C0F84843465101F5A8714559019522F07A
:1077E0007F42019D40F82120C0F844430BB1C0F80E
:1077F000044302B070BD00002DE9F74F0D4622F0A2
:107800007F4402684FF4803705F150068F40804670
:10781000B60002EB8500C2F84873B6B2C2F808732E
:10782000D2F8041599464FF0000BD0F84035C0F857
:10783000401542F806B05B1A9259009223F07F433C
:10784000012B009A4FEA850A0CD1264B4FF4806039
:1078500043F001039847D8F8003043F806B09B592D
:107860000193019BD8F80010D1F80465C1F8447366
:10787000A31B23F07F43012B1CD11A4B05F5A875E0
:10788000013443F0010341F825404FF480609847EC
:10789000D8F80030D3F804359E4209D1D8F800302A
:1078A0000020C3F84473C3F8047303B0BDE8F08F3D
:1078B0000D20FAE78A44C9F1FF13CAF84045D1F810
:1078C0000405221A013A22F07F4203F57F439342D6
:1078D000EED3002AE2D10134CAF84045D1F804358C
:1078E0009842DAE72021030003680222C3F8442308
:1078F00009B1C3F80423704700684FF48271FFF7A1
:10790000F3BE4FF4803303FA01F10368C3F8481360
:10791000C3F80813704750318900006889B2FFF737
:10792000E3BE0368D3F804057047000090F9043003
:10793000002B09DB5A09012103F01F0301FA03F3AD
:107940004032024941F82230704700BF00E100E0B8
:10795000024B034A1B681068184700BF4C320020D6
:107960004432002010B561B1B2FBF3F403FB1424E0
:10797000A4B244B9C0E9001484608281C381204666
:1079800010BD0E20FCE70920FAE782B050E8022F74
:10799000C188B2EB324F4FF0000317BF92B241EAF9
:1079A000014142EA014104E04268B2EB324F08BFB4
:1079B000012340E80212002AE8D18DF807309DF833
:1079C0000730002B0CBF1120002002B0704737B5E4
:1079D00050E8013F9DB2C48925448489A54228BF4F
:1079E0002D1B0489A54202BFBFF32F8F002207E0A1
:1079F000C5EA030540E80154002CE9D14FF001022B
:107A00008DF803200193019B9DF803200B6002F089
:107A1000FF0322B10B880068184403B030BD18463C
:107A2000FBE70A884B889A4209D150E8012FC2EA45
:107A3000024240E80123002BF7D1012070470020CB
:107A4000704737B550E8023F1FFAA3F5C488A54236
:107A500002BFBFF32F8F00220DE0C4892544848923
:107A6000A54228BF2D1BC3EA054540E80254002C5F
:107A7000E8D14FF001028DF803200193019B9DF89E
:107A800003200B6002F0FF0322B14B88006818440A
:107A900003B030BD1846FBE70A884B889A4209D1EB
:107AA00050E8022FC2EA224240E80223002BF7D11D
:107AB000012070470020704701F01F024B0901218F
:107AC000914000EB830000F065B84B0910B501F060
:107AD0001F040121A14000EB830000F04FF8E040BB
:107AE00000F0010010BD01F01F0301229A404B0974
:107AF00000EB8300D14300F065B84B0901F01F0192
:107B000050F82300C84000F0010070472DE9F0470D
:107B10004F1E7F0980460E460137002558F8254044
:107B200008EB8509E44394FAA4F4B4FA84F44FEA28
:107B3000451A202C06D10135AF42EFD834462046F5
:107B4000BDE8F0875444A642F5D921464046FFF7E8
:107B5000BCFF0028F3D0D9F80040E44394FAA4F421
:107B6000B4FA84F4E5E710B5034653E8000F0A467B
:107B700043E8002494F0000FF7D110BD10B5034680
:107B800053E8000F40EA010243E8002494F0000F9C
:107B9000F6D110BD10B5034653E8002F42EA0100AC
:107BA00043E8000494F0000FF6D110BD10B5034671
:107BB00053E8000F00EA010243E8002494F0000FAC
:107BC000F6D110BD10B5034653E8002F02EA0100BC
:107BD00043E8000494F0000FF6D110BD10B5034641
:107BE00053E8000F00EB010243E8002494F0000F7B
:107BF000F6D110BD10B5034653E8002F02EB01008B
:107C000043E8000494F0000FF6D110BD10B5034610
:107C100053E8002FA2EB010043E8000494F0000FAA
:107C2000F6D110BD0121FFF7A9BF0121FFF7B2BFB7
:107C30000021FFF7BBBF0021FFF7C4BF10B590B113
:107C4000D0E9012301689B1ADBB20A60013BDBB279
:107C5000FF2B026802D10020107110BD11684C1C6E
:107C600014600B70F2E70E20F7E737B505460024E5
:107C70000DF107008DF80740FFF7FCFC2A686B68E0
:107C8000116899420ED9481E106011F8014CEB683A
:107C9000298A01FB0434AB6811791B1ADBB29942C3
:107CA00038BF13719DF80700FFF708FD204603B0A9
:107CB00030BD37B5054600230DF107000C468DF8A1
:107CC0000730FFF7D7FC2A681368591C1160E96870
:107CD000641A298AB4FBF1F41C709DF80700FFF7C1
:107CE000EDFC03B030BD826810B504462AB143698B
:107CF0000168006998470023A36010BD0EB403B566
:107D0000039921B104AB01AA019300F06FF802B00E
:107D10005DF804EB03B07047826830B40468551C0A
:107D20008560A154D0E901329A4202D330BCFFF7FA
:107D3000DABF30BC704700002DE9F84F9846DDE906
:107D40000A43154682460F460A464FF00109AA42E9
:107D50000FD2C14538BFC14613F0010B01D16CB938
:107D600000240126B8F1010F1BD908F1FF386E433A
:107D7000F8E709F10109B2FBF5F2E8E79B070ED538
:107D8000B8F1000F0CBF30262026A145E9D2013CF6
:107D900031465046FFF7C0FF002CF6D1E0E7202621
:107DA000F3E7B7FBF6F39D42E1D9DFF83C80B7FB80
:107DB000F6F3504618F8031006FB1377FFF7ACFFF5
:107DC0003346AB42B6FBF5F6F1D2BBF1000F02D061
:107DD0000CB1A14501D3BDE8F88F20215046013CEC
:107DE000FFF79AFFF4E700BF262103002DE9F74FC4
:107DF000054617468846002900F0428118F8011B05
:107E000049B92B7B002B00F03B81284603B0BDE82D
:107E1000F04FFFF768BF252940F0B780002698F89B
:107E200000302D2B424608F1010823D0302B24D0FE
:107E30002B2B25D000242A2B02F1010123D13B68F2
:107E40001A1D1B683A601C440A4613782E2B26D153
:107E500001324FF0000A104610F8011BA1F1300C5E
:107E6000BCF1090F1DD80A2303FB0A13A3F1300A42
:107E70000246F0E746F00106D1E746F00206CEE7FB
:107E800046F00406CBE711F8013CA3F130000928C5
:107E9000DBD80A2202FB0434303C0A46CBE74FF021
:107EA000000A12F8011B01F0FB0068289046F8D088
:107EB000782909D86F290CD8632962D022D82529BE
:107EC00063D0582900F0888098F80030002B95D1B5
:107ED00097E770390829F7D801A353F821F000BFBC
:107EE0005B800200C97E0200C97E0200E97F0200B9
:107EF000C97E0200C77F0200C97E0200C97E02005F
:107F0000D97F0200642901D06929DDD13A68D2F80D
:107F10000090111D89EAE9723960A2EBE9724FF015
:107F2000010B092A35DCD34538BFD3462CB1B9F152
:107F3000000F01DB720700D5013CB30702D5BAF18F
:107F4000000F03D0F00701D44CBB0024B9F1000F9F
:107F50002DDAC9F100092D212846FFF7DDFE06F0D4
:107F60000302022A04D1BAF1000F01D11CBB002484
:107F7000CDE9004653460A2249462846FFF7DCFE73
:107F8000A2E73B681A1D19783A602846FFF7C4FE3D
:107F90009AE70A230BF1010BB2FBF3F2C1E7A34509
:107FA000D4D220212846013CFFF7B6FECCE771076A
:107FB000D5D52B21D0E7A345DAD230212846013C84
:107FC000FFF7AAFED2E73968CDE900460A1D3A60FC
:107FD00053460A220968D0E739680A1D3A60CDE99C
:107FE000004653461022F5E73B681A1D3A6016F02A
:107FF0000106D3F8009028D1B9F1000F03D048460C
:1080000009F07DFB0646B44200D904BB09F1FF39F3
:1080100019F8011F00293FF457AF2846FFF77CFEEF
:10802000F6E728460136FFF777FE19F80610002913
:10803000F7D1A642BFF448AF002C3FF445AF202152
:108040002846013CFFF768FEF3E70026EDE7202114
:108050002846013CFFF760FED5E73B681A1D3A60F1
:10806000302128461C68FFF757FE78212846FFF785
:1080700053FE00220823CDE90032214610227CE77E
:1080800003B0BDE8F08F00BF2DE9F84FB0F806A0AF
:108090004579D2F800B09DF828900AFB05F5043D1B
:1080A00088460BEB0301A94203F1040488BFA5EB4A
:1080B000030BB4FBFAF607460AFB1644C2F800B0FD
:1080C0004EB9AAEB04055D4528BF5D46BBF1000F24
:1080D00004D1BDE8F88F3F68013EF1E7043408EBB6
:1080E00006003C442A46B9F1000F0DD02146ABEB07
:1080F000050B09F086FADA452E443F6855464FF0E5
:10810000000428BF5D46E1E701462046EFE7FFF7A0
:1081100095BDF8B546790146721E05460023934287
:108120002D6803D30024A64202D8F8BD0133F6E738
:108130000F682846FFF7BDFD01343946F3E72DE906
:10814000F843068ACD1C0746FFF78FFD043E3544F1
:108150000446B5FBF6F5F0B14FF48073EDB28380C1
:10816000C680013D076081464FF00008A84512D245
:108170003846FFF77AFD064648B1637901336371EB
:1081800008F10108C9F8000007608146EEE72046C3
:10819000FFF7BFFF34462046BDE8F88301210430D5
:1081A000FFF728BD10B5012104460430FFF72EFD6E
:1081B00010F0FF0F04D12046BDE81040FFF7A9BF23
:1081C00010BD1FB503920022009203AAFFF75CFFC7
:1081D00005B05DF804FB1FB503920122009203AACB
:1081E000FFF752FF05B05DF804FB41DF7047000068
:1081F000064B10B500241C70054B1C60BFF35F8F4D
:108200000449054800F099F8204610BD5832002076
:108210005C320020402103005032002007B50023CB
:108220000DF107008DF80730FFF724FAF1EE103A50
:1082300023F09F03E1EE103ABFF35F8F094B40221A
:10824000C3F884219DF80700FFF738FA08F058FFBB
:1082500020B1FFF7CAFF03B05DF804FB20BF40BFA9
:1082600020BFF8E700E100E0836800225A60C3E91C
:1082700004229A60DA601A6070472DE9F0410646E0
:10828000884617461D4683B9B0687368D0E9031461
:1082900003F1010C0A1B62450ED100243C6015B3AA
:1082A000FFF7C9FC0020BDE8F0818068FFF7BAFC49
:1082B0000028E9D01120F6E701EA030223409A42A0
:1082C00038BF64443B682CBFACEB0204641A9C4288
:1082D00028BF1C4633683C601344C8F80030C368AC
:1082E0001C44C460DEE72846DDE7034680685B681F
:1082F000826810B50469013323449B1A8B4209D369
:108300001144C0E90211FFF793FC002814BF0020BC
:10831000082010BD0420FCE7806808B58268036966
:10832000D21A8A4207D31944C0E904110430FFF776
:1083300082FC002008BD0420FCE70B684A6843600B
:10834000934208BF0023016008BF43607047436841
:1083500043B10268916852680B449342436004BF82
:1083600000234360704770B5446806460D46206898
:1083700018B1B3682946984718B923682B6025605F
:1083800070BD2468F3E74368186808B102681A6092
:1083900070474368186870474368186800B97047A9
:1083A000884203D102681A600120704703460068C2
:1083B000F4E7000010B50D49A1F59472914201D87F
:1083C00000200FE08C1AE30F03EBE4035B1002EBD9
:1083D000C30452F83330834205D802D204F10802B4
:1083E000ECE7606810BD2146E8E700BF4C260300BB
:1083F00008B5FFF7DFFF024B002808BF184608BD8D
:108400000F25030010B50446C0B2FFF70BF9204654
:1084100010BD000070B5064D0646002455F8043B1B
:108420000BB1304698470134042CF7D170BD00BF22
:108430006C320020033080B240F2FE33984230B5F7
:108440001FD8134B1A783AB91C895D892C4404440F
:10845000A4B2B4F5806F0AD91A7DAAB99A8BDC8BC5
:108460002244024492B2B2F5806F0DD801220A80F4
:108470001446142202FB04335A8910445881002008
:1084800030BD48F20860FBE748F20660F8E700BF3D
:10849000A03200200B4A0C4B5188142000FB013104
:1084A000CB6833B90420496810700122074801F0F5
:1084B0007BB907490523137002238B8001220968C9
:1084C0000023F3E784320020A0320020D82A0020C5
:1084D0006833002007B5002305490093054A096861
:1084E0000548082301F0CAF803B05DF804FB00BF9B
:1084F0006833002058260300D82A002007B500233F
:1085000001460093034A0448082301F0B7F803B07A
:108510005DF804FB50260300D82A002013B5002381
:108520000C4600930146084A0848042301F0A6F8C7
:1085300038B90749142303FB04140123237402B040
:1085400010BD48F20D60FAE74C260300D82A00203F
:10855000A032002037B50A480A4B42689C88196847
:1085600053880325033305709BB2002000909B00C5
:1085700001EB8401044801F081F803B030BD00BF75
:108580008432002068330020D82A002010B501462C
:108590000448FFF71CFA1C220446002109F05AF88F
:1085A000204610BD5433002068B10268084B9A423F
:1085B00009D14068074B984207D00133984214BF55
:1085C000032001207047032070470020704700BF40
:1085D000DEC0ADDEFE011EF14388033300EB8303F2
:1085E00099420BD382884FF6FF739A4208D00388D2
:1085F00033B18068431C584258417047022070478D
:10860000012070472DE9F0410D460223154F2B80C4
:10861000164600F5805100F108044FF001088C4225
:108620000ED2236801330BD02046FFF7D5FF48B1A7
:108630000EB186F80080022809D14FF480632B80A8
:10864000BDE8F081A3683A68934200D93B602B886B
:108650006288033313442B806388033304EB830461
:10866000DDE700BF9832002038B5144B14220D46C8
:1086700002FB00302B68446804F58051A3B15C888C
:10868000033403EB84048C4215D22368013312D0E7
:108690002046FFF7A1FF012808D002280BD00028B0
:1086A000F1D12C60012038BD0834ECE76388033336
:1086B00004EB8304E7E70020F5E700BFA0320020C9
:1086C000426873B504460D466AB3244BD9688A42A2
:1086D00029D31B699A4226D812F0030323D12049DB
:1086E0000089098988421ED12068916888421AD180
:1086F0001C494868824203D900F5805082420DD35C
:1087000089698A420CD901F580518A4208D2012236
:108710002A80B3FA83F0400902B070BD1A46F7E729
:1087200048F20963F5E700232B801E46019628884E
:1087300001A9FFF799FF30B92B8801339BB2012BB8
:108740002B80F3D9E8E7019B226899689142EED12A
:108750006360034B1B892381DEE700BFD82A00201A
:1087600084320020A03200202DE9F8431C461D4B26
:108770001B7806460F46154673B382B37CB3DFF809
:108780006C804FF01409A388012B02D948F20960CC
:1087900020E009FB03F318F803302BB9A088214629
:1087A000FFF762FF20B92060A3880133A380EAE7C6
:1087B00023681EB1998832889142EFD11FB1198880
:1087C0003A889142EAD19A68C5E90023064B1B8991
:1087D0002B810020BDE8F88348F20160FAE748F2F7
:1087E0000460F7E77C32002084320020A0320020B1
:1087F00008B5074B5888191DFFF736FF18B1BDE8BB
:108800000840FFF7A7BEBDE80840FFF743BE00BF22
:10881000843200202DE9F04FA44FDFF8B49289B0E4
:108820000646B8463B6823B9A1484946FFF709F90F
:108830003860D8F8005029784B1E052B07D8DFE8A0
:1088400013F022007C007C000E010E01660148F24C
:108850000E641422002103A808F0FCFE41F61D530B
:108860009C4208BF0024D8F8003004941A78013ADA
:10887000052A00F2F881DFE812F0E401E8010802BD
:10888000180224022E022EB18A4B00225A604FF4A5
:108890000644DEE72B79032B1DD8DFE803F0150231
:1088A0002B3685490B78022B08461AD00B7D022BFC
:1088B0004FF0010317D114225343C2180020C854AB
:1088C0005068FFF71BFE03E001232B71FFF702FE48
:1088D000002800F0BE80774B00225A6048F20D64F9
:1088E000B7E70023E7E7734A13700023536041F6AC
:1088F0001D54AEE771497248002302222B718A8011
:108900000968012200F050FFE2E76C4C00262E714E
:108910002068694DFFF7F2FD6A4BD4F800C05A8811
:1089200014235343EA18EE5451682160A188C2F819
:1089300004C011810222A280CAE7B5F814A0AA7D62
:10894000DFF874B1AEB1022AEB8806D9142101FB1D
:108950000AB1DA1C088902440A81142202FB0ABA0D
:10896000C3F57F43BAF80A20FD331344AAF80A304E
:108970008DE7142303FB0AB318895C6804EB8004B9
:10898000062A69D8DFE802F0274E36441D5A040053
:1089900041F61D54AA7DEB88022A06D9142101FB59
:1089A0000AB1DA1C088902440A81142202FB0ABABD
:1089B000C3F57F43BAF80A20FD331344AAF80A30FE
:1089C00047E74148414900234360AB690360FFF733
:1089D00077FE00285BD00223AB75002300930423AD
:1089E000EA182146364800F049FE002831D048F206
:1089F0000D64CFE72B69002B14BF03230123AB7554
:108A00000023009305F10C02042304F10801E9E7B7
:108A10000123AB750022EB8800922A699B0004F1C8
:108A20000C01DFE703290CBF05230623AB750023E8
:108A30000093042305F10802E118D3E70623AB7580
:108A4000224B1988204B5868FFF768FD0446002820
:108A5000A0D109B0BDE8F08F48F20E649AE7002E6D
:108A60007FF415AF2B79012B34D0022B3FF43FAFAD
:108A7000002B7FF4ECAE02232B710DF10A01EB68A1
:108A8000039303A8CDE90466FFF71AFE10B948F274
:108A90000964DEE60498BDF80A108388EB80038839
:108AA0002B81FFF73BFD044627E000BF9C320020EE
:108AB000543300207C320020A03200206833002094
:108AC000D82A002084320020603200207433002035
:108AD00094320020814B03AA3146A81DFFF744FEC3
:108AE0007E4B044668B999880498FFF717FD044641
:108AF00048F209639C423FF4FAAE002C7FF4A9AE21
:108B0000A7E708223146184608F0A4FDF0E7002E3A
:108B10007FF4BDAE724B1A7BB2B11E731A78013A64
:108B2000062A3FF694AE01A151F822F0D78B02003D
:108B3000FD8B02001B8C0200218C02004F8802007A
:108B4000278C0200398C02001A78072AE6D801A186
:108B500051F822F0758B02001D8B02001D8B020064
:108B60009B8B0200AF8B0200D38B0200D38B0200E1
:108B7000978B02001A895B4901321A8100225A80C0
:108B80001A730A78B2FA82F252099A720A7DB2FA1C
:108B900082F25209DA72012207E0534958688A8842
:108BA0004088033202448A8002221A70B6E74D4C94
:108BB0005A884D49142505FB0242086854685060E4
:108BC0008888108102200C608880002111740622A0
:108BD000EBE70722E9E79A7A32B9DA7A8AB9002212
:108BE0001A705A805A6082E63E4900229A72CA6818
:108BF000002AF2D1097C0029EFD05A80FFF7F8FD56
:108C000051E70022DA72374A116A0029E7D192F857
:108C10002420002AE3D00122EFE7FFF79BFC42E784
:108C2000FFF738FC3FE72F4A5B88142101FB032341
:108C30005868FFF763FC36E700225A60FFF74AFCEA
:108C400031E700238DF80C300DE001228DF80C2067
:108C50001A89ADF818209A88DB680593ADF81A20B8
:108C600000238DF81C3003A8FFF7D4FB00264946EB
:108C70001E48C8F80060FEF70FFF1D480121FEF7EF
:108C8000C5FF00287FF4CEADE3E602228DF80C206C
:108C90001A89ADF818209A88ADF81A20DA689B7DF9
:108CA00005929A1F53425341DBE703228DF80C20B3
:108CB000DA88ADF818201A89DB68ADF81A20059318
:108CC000D1E704228DF80C20DB88ADF818300023A2
:108CD000ADF81A30F3E70523B4E700BF783300207E
:108CE00084320020A032002068330020543300205A
:108CF000643300204068FFF78DBD000008B50548CB
:108D00000121FEF76BFF18B9BDE80840FFF782BDEF
:108D100008BD00BF643300202DE9F3419846374B6E
:108D20001B7806460D46002B5CD000295DD00988D3
:108D30004FF6FF7399425BD06B88002B58D06B685D
:108D40009B0758D14AB92F890DF102013846FFF728
:108D500071FB30B102B0BDE8F08113885788ADF8DF
:108D6000023001A8FFF712FC044660B9BDF80230DA
:108D7000234A142101FB032358890338C01B58815F
:108D800048F20760E6E780F8008000238375BDF8AD
:108D9000023083826B68036101211A48FEF72AFFC3
:108DA0002B882381B8F1030F6B88A38004BF0423B1
:108DB000A3754FF0000508BF3368E06008BFA361EA
:108DC0001148E780658101A9FEF72BFE36B1E36803
:108DD00033600E4B75601B89B5723381FFF78EFFD0
:108DE0000020B7E748F20160B4E748F20460B1E759
:108DF00048F20360AEE748F20260ABE77C32002045
:108E0000A032002098320020543300208432002009
:108E100008B5034607480268042A08D00168064AD4
:108E200042F821300121FEF7E5FE002008BD48F29E
:108E30000B60FBE7703300206C3200202DE9F04F0F
:108E400089B01422002103A808F004FC794A1378A1
:108E500003F0FF01009190463BB103A8FFF7DAFA57
:108E60000027384609B0BDE8F08F101DFEF7DAFE86
:108E70000028F5D140F6F8734FF080521B685C1C57
:108E800008BF6D4B6D4C08BF1B6811695269581CB7
:108E900008BF02FB01F323616949A3F54053002297
:108EA0002046E36000F0B8FB019407460028D8D1C3
:108EB00064496548DFF8A4B11C238C22FEF752FDFB
:108EC000BA463D464FF003093C46019BDE685644D6
:108ED0003046FFF769FB012862D0032817D000282D
:108EE0003DD15A494FF0140C0CFB04FC01EB0C0271
:108EF00001F80C0056600CF110020CF1080C0A4449
:108F000030466144FFF77EFB45F0020545E03268DC
:108F1000531C02D04E4B9A4234D1321D06F580517B
:108F2000106801302ED104329142F9D1DBF80020D3
:108F30003AB902220123CBF80060ABF80420009379
:108F40000BE014226243414B022099189854414A85
:108F50004E60548001340881A4B245F001050AF541
:108F6000805ABAF5405FB0D1B9F1010F98BF002522
:108F7000EDB2022D03D0062D31D0002D39D148F2AB
:108F80000A676EE7314914226243881809F1FF39F4
:108F90004660032088541FFA89F90134A4B2DEE741
:108FA000009B6BB1294B14226243991802209854FC
:108FB000DBF800204A60274A088154800134A4B2BB
:108FC00000222549CBF800603046FFF71BFBBBF8B9
:108FD0000420022A0CBF042208221543BFE7012304
:108FE00088F8003003A80023C8F80430FFF712FA0D
:108FF00037E702A8FFF7CAFAC8B10123013D0370A1
:109000000A2D09D8DFE805F0060806080708070852
:109010000F110F000023037102A90B48FEF701FD99
:10902000FFF76CFE1DE70323F5E70223F3E748F2A1
:10903000076716E77C32002014100010D82A0020A1
:109040006C260300C832002054330020A0320020D8
:10905000DEC0ADDE843200206C3300206833002097
:1090600073B50D460446C8B1C1B10DF10601FFF755
:1090700027FBB0B10C4BBDF806006668142202FB5A
:10908000003001210C30FEF7B5FD63682E600C3313
:109090006B600123A372002002B070BD48F204602F
:1090A000FAE748F20960F7E7A032002013B504465A
:1090B000A8B10DF10601FFF703FB98B10C4ABDF80A
:1090C0000630142101FB0323DA6872B1A27A62B17F
:1090D000DA680020013ADA60A07202B010BD48F2EE
:1090E0000460FAE748F20960F7E748F20560F4E740
:1090F000A032002002230022FFF70EBE18B1032386
:109100000022FFF709BE48F204607047114B1B783C
:1091100013B50446ABB14FF6FF73984214D001A8C3
:10912000FFF734FA98B10523037001230371C4805B
:1091300001A90948FEF775FCFFF7E0FD002002B029
:1091400010BD48F20160FAE748F20360F7E748F221
:109150000760F4E77C320020543300200F4B1B786B
:1091600007B5A3B101A8FFF711FA98B10623037060
:1091700001A90B48FEF755FC0A4B1A780AB10122E7
:109180001A73FFF7BBFD002003B05DF804FB48F243
:109190000160F9E748F20760F6E700BF7C32002083
:1091A000543300208432002007B5ADF80600ADF836
:1091B00004100DF1060001A9FFF7D6FA03B05DF81F
:1091C00004FB07B51346ADF806000A4600200DF172
:1091D0000601FFF7C9FA03B05DF804FB07B51346B3
:1091E000ADF806000A460DF106000021FFF7BCFAB3
:1091F00003B05DF804FB20B119B103680B600020D7
:10920000704748F2046070472DE9F84F3B4B1B78DC
:109210000446002B6CD000286DD0DFF8E4A01222A9
:10922000002108F017FA032323804FF0000BD046EB
:1092300014274FF00109DAF80410BAF80A50BAF806
:1092400008600846FFF7B0F9032808BF2388628842
:1092500004BF03F1FF33238007FB0B832E44DB683D
:109260001344638023891D4463892581B6B2334446
:109270006381C6F58066A389B6B2B34201F10805E1
:1092800038BFA68101F58051A94229D92B68013345
:1092900026D02846FFF7A0F901280AD0022815D0C9
:1092A0000028F1D1A3880133A3800AE04FF0010B1D
:1092B000C1E7E3880133E380E3896A880333134419
:1092C000E3816B88033305EB8305DDE7E38884F8EE
:1092D00010900133E380E389491B03EBA101E18195
:1092E0000AF1140ABBF1000FE0D00020BDE8F88FAE
:1092F00048F20160FAE748F20460F7E77C320020A8
:10930000A032002029DF704728DF704770B503685E
:109310009E6886B004460D466EB114220021684650
:1093200008F098F9A3680593237901952BB1012BD7
:109330000DD06846B04706B070BD01238DF80030EF
:1093400023690293E368039363690493F1E70223BB
:109350008DF80030E3681B030293F5E70846704779
:1093600000207047024B187A003818BF0120704760
:109370001C340020034B187A0122B0FA80F05A7492
:10938000400970471C34002008B510461A4608F002
:1093900038F9002008BD000008B514220021044857
:1093A00008F058F90348FEF7F0FA002008BD00BFA6
:1093B0001C3400200C34002010B5094C094B4360CC
:1093C0002046FEF72FFC40B907F09AFE06492074AC
:1093D0001C2306488C22FEF7C5FA002010BD00BFF2
:1093E0001C34002060260300803300200C34002051
:1093F00070B5244C244E237A25463BB92349244892
:10940000FEF71FFB306008B9606070BD022334684E
:109410002B72237973B1012B24D020460321FFF74F
:1094200075FF00232B726B6018491948BDE8704026
:10943000FEF732BBD4E90523D21AB2F5805FD4E936
:10944000031028BF4FF480529208012A38BF01222E
:1094500019441844FFF756FF50B11128DDD10123FC
:109460002B72D2E7D4E903031844FFF74DFFF3E76B
:109470002B7C002BC9D10146BDE87040022000F0D2
:1094800009B800BF1C3400203434002030340020E0
:109490000C34002038B5831E012B45D8234C237A89
:1094A000002B41D0022B09D1032830D0204B0022C1
:1094B0001B68E2601A793AB1012A22D0637C7BBB37
:1094C000BDE83840FFF794BFD3E905128D1AB5F512
:1094D000805F94BF521902F580529A619142EDD19A
:1094E00002284FF0000308BF19462372104B18BF23
:1094F0000D211868FFF70AFF0E490F48FEF7CCFA56
:10950000DCE71A6901321A615B699A42E7E7E368AE
:109510000133082B01D8E360D0E70023E360DFE7E5
:10952000BDE8384007F0DCBD38BD00BF1C3400206A
:1095300034340020303400200C34002000F0FD03CF
:10954000012B08D1044B00225A74421E5042504154
:109550001874FFF74DBF70471C34002010B5064C3F
:10956000201DFEF75FFB28B9637C1BB9BDE81040E6
:10957000FFF73EBF10BD00BF1C3400202DE9F341B2
:1095800080460D460F4801A916461F46FEF71FFAF2
:109590000446A8B11C22002108F05CF82D0B012321
:1095A000237101A90748C4F80080A760E5606661DF
:1095B000FEF737FAFFF7D2FF002002B0BDE8F081D6
:1095C0000420FAE70C3400202DE9F7438146884651
:1095D000104801A917461E46FEF7F9F90446B0B136
:1095E0001C22002108F036F800250A9BA36001A97F
:1095F000C4E9037807482571C4F800906661FEF756
:1096000010FAFFF7ABFF284603B0BDE8F083042053
:10961000FAE700BF0C34002013B50B46114680B9A1
:10962000104B1148114AC01A0E23C0080093104B6A
:109630000004104940F00100FDF701FA0E2002B0CD
:1096400010BD4BB9074B08480B4AC01AC0080E237F
:1096500000930004064BECE703601B6802B0BDE812
:10966000104018475C1E0300CC1E03008C2603002C
:109670002228030091260300C02603002DE9F341B0
:1096800088B93D4B3D483E4AC01AC0080E243D4BA8
:10969000009400043C4940F00100FDF7D0F9204659
:1096A00002B0BDE8F0814AB9334B3448374AC01A9A
:1096B000C0080E24334B00940004EBE7D0F800E020
:1096C000BEF1000F09D12C4B2C48314AC01AC008FA
:1096D00008242C4B00940004DCE74BB9264B2748A8
:1096E0002C4AC01AC0080924264B00940004D1E774
:1096F0004568D5F80480B3FBF8F508FB15354DB186
:109700001D4B1E48244AC01AC00809241D4B009452
:109710000004BFE78D0709D0174B18481F4AC01A2D
:10972000C0081024174B00940004B3E712F0030F95
:1097300009D0114B11481A4AC01AC0081024114B05
:1097400000940004A6E7C568A9420BD34D1EEC188F
:109750000569AC4206D8DEF80C40A44602B0BDE86C
:10976000F0416047044B05480E4AC01AC008102457
:10977000044B009400048DE75C1E0300CC1E030024
:109780008C26030034280300912603000E270300D3
:10979000BA260300CD260300142703003E2703004A
:1097A0005627030079270300F7B580B92A4B2B48C9
:1097B0002B4AC01AC0080E242A4B009400042A49E0
:1097C00040F00100FDF73BF9204603B0F0BDD0F8B2
:1097D00000C0BCF1000F09D11F4B2048234AC01A1A
:1097E000C00808241F4B00940004E8E74AB91A4B4C
:1097F0001A481F4AC01AC00809241A4B00940004D2
:10980000DDE74768D7F800E00EF1FF370F4209D0D7
:10981000114B1248174AC01AC0081024114B00946B
:109820000004CCE7C768B9420CD304694D1E0EFB97
:109830000255A54206D8DCF81040A44603B0BDE8A6
:10984000F0406047044B05480B4AC01AC00810247A
:10985000044B00940004B2E75C1E0300CC1E03001E
:109860008C2603004728030091260300BA26030034
:10987000CD260300A0270300C62703002DE9F843E7
:109880000468054694F8200001F0D2FE04F11807A0
:10989000FF264FF0FF394FF00008207AFF2802D052
:1098A00001F0C6FE2672607AFF2802D001F0C0FEE9
:1098B00066722068431C03D000F09CFEC4F8009040
:1098C00084F80B800C34BC42E7D16868BDE8F843EB
:1098D00001F0E6BD2DE9F041134EDFF850800C4653
:1098E0000025012706EB4106735D5BB1735D013B0B
:1098F000DBB27355735D93B958F824301B6820466A
:10990000DB6998474DB167B1084B53F82430022109
:10991000BDE8F041586801F036BE0125E4E70027B4
:10992000F0E7BDE8F08100BF51340020383400205A
:1099300010B540680B4902798C5CFF2CE3B20DD066
:10994000FE2B0DD0006803F5A87350F823300648AD
:1099500050F82200984203D1FF238B54002010BD01
:109960000120FCE74C3400205C3400202DE9F74F47
:109970000368904693F82120022A04460F4640F0DF
:1099800099800C254D435A195268904509D1DB69DD
:109990001BB9002003B0BDE8F08F426810799847EA
:1099A000F7E7FFF7C5FF8346002840F0858063682E
:1099B000DFF810A11B79FE220AF80320266896F82A
:1099C000200001F091FED146B8F1000F1FD13544BF
:1099D000687A01F089FE287A01F06EFE63681B79CF
:1099E000FF220AF803200C2303FB07662368C6F84E
:1099F0000480DB69002BCCD063681A792F4B03EB12
:109A000042030221D955606801F0AAFDC1E7B1699E
:109A1000884507D335441FFA81F8287A01F064FE9F
:109A2000687AD9E707EB47034FEA830A06EB83031B
:109A300060685A68914238D0002A36D0904534D2B6
:109A40005B46032101F05EFD636896F820B019685B
:109A500056F80A00354401F5A671AB7A01910BB3B3
:109A600000F02CFE02460199584601F005FE96F8DA
:109A7000200001F021FE6368114A1B7909F8037088
:109A800042F823800C2505FB0765606800234246E9
:109A9000394601F037FD287A01F00EFE687A01F0B0
:109AA0000BFEA0E700F0FCFDDCE70379FF2209F8DC
:109AB0000320E7E708206DE711206BE75134002011
:109AC0005C3400204C34002003681B8B5A43642311
:109AD000B2FBF3F292B2FFF749BF00002DE9F04F5D
:109AE0002DED028B89B0044603928946002900F0CF
:109AF0003781066896F82130002B40F0338101F061
:109B00000BFE08B1852844D100F008FD002837D0AD
:109B1000954B964A1B6803F0F003303B18BF0123B6
:109B20001370FF2386F820304FF6FF730022338135
:109B30004FF0FF33F2723360F275B382F36006F1D7
:109B4000200001F041FD074600BB09F108038046F3
:109B5000049359F828205FFA88F308EE103A531C52
:109B600000F09780256895F82110B9B108252046A6
:109B7000FFF784FE284609B0BDEC028BBDE8F08FEC
:109B800000F08EFC0028C3D00325F3E72046FFF742
:109B900075FE0425EEE74FF00108DAE7049B059215
:109BA00013F808B00C2303FB08FA05EB0A03104670
:109BB000596083F80AB003238DF81830BBFA8BF391
:109BC0005B098DF8193006A901238DF81A3000F0D1
:109BD000AFFCB8B9059A45F80A20012393404FF02D
:109BE000A042BBF1000F00F0AD80C2F80C350C2391
:109BF00003FB08F303F108002844059301F0E4FC9B
:109C0000059B08B10425B2E703F109002844059338
:109C100001F0DAFC059B0028F4D12B440593187A57
:109C200001F062FD059B587A01F05EFD55F80A00CF
:109C3000BBF1000F00F0898000F040FD834655F82D
:109C40000A0000F02DFD626811680C2202FB085525
:109C50004FEA880303F5A073194482465A46287ACE
:109C600001F00AFD6368687A1968524601F5A4712B
:109C700001F002FD0123EB7263683D4A1B7902EBA0
:109C8000430318EE101A0022204603F80820FFF7BD
:109C90006DFEB8F1000F3FF47EAFD9F81030B3F588
:109CA000805F01D3092F58D1304B1B7813B1012F9E
:109CB00038BF012700238DF8193060688DF81870BF
:109CC0004FF4E063ADF81A3003792A4A079306A9E6
:109CD00001F064FB054600287FF449AF6068D9F8BD
:109CE00010200368D3F81075FFB24FEA127CC7F159
:109CF000200112010CFA01F1A7F1200322FA07F763
:109D00002CFA03F30F431F434FF00108B76101F032
:109D1000F5FB04233A466068CDF80080022101F08B
:109D20000AFC0221606801F02EFC039BF36163686A
:109D3000114A1B7986F8218042F823400F4AFF21FF
:109D4000D15417E7C2F8083551E700F0A9FC834663
:109D500055F80A0000F0B2FC75E75B0801379EE792
:109D60000B2507E7082505E7E80F00F07034002011
:109D700051340020D5980200383400204C340020A3
:109D80002DE9F0470768DFF86890002604463D4655
:109D9000B0464FF00C0A63681B7909EB430303F8E4
:109DA0000680EB7A73B1236828680AFB0633997A38
:109DB000B1FA81F1490900F08FFC286800F04CFCF1
:109DC000C5F804800C3576B16068084A0379FF2134
:109DD000D15401F093FB606801F048FB022387F83F
:109DE0002130BDE8F0870126D5E700BF4C340020C4
:109DF000513400202DE9F0470546D0E9007001F00C
:109E000043FB6868022101F0BEFB97F8200001F0D7
:109E10006BFC3C4600264FF001094FF00C0A4FF056
:109E2000A048E37A8BB12B6820680AFB063309FA55
:109E300000F29B7A8BB9C8F8082500F01FFC207A45
:109E400001F052FC607A01F04FFC0C341EB187F82F
:109E50002160BDE8F0870126E3E7C8F80C25ECE7B0
:109E60000B4B1B685A1C05BF0A4B0B4A0B4A106868
:109E70000ABF1B781068C0F30310062B05D1033806
:109E800003288CBF0020012070470020704700BFCE
:109E900030010010E00F00F0E80F00F03401001076
:109EA000074B1B78062B09D1064B1B68C3F3031322
:109EB000033B032B02D8044AD05C70470020704754
:109EC000E00F00F0E80F00F06228030008B5FFF78C
:109ED000C7FF28B1834B844A1B68C3F30423136074
:109EE000FFF7DEFF10B1814B814A1A60FFF7B8FF20
:109EF00028B1804B804A1B68C3F342331360FFF7DD
:109F0000CFFF20B17D4AD36823F08073D360FFF781
:109F1000A7FF40B14FF080430022C3F80C21C3F8E3
:109F20001021C3F83825FFF7BBFF10B1744B032293
:109F30001A60FFF7B5FF40B1724B05221A6001228B
:109F40009A6700229A603F225A606F4B1A68511C30
:109F50000BBF6E4B6E4B1A781B6802BF08331B6831
:109F6000C3F30313062A4DD1033B032B4AD8694A96
:109F7000D35C002B46D04FF08052674BD2F80414CC
:109F8000C3F82015D2F80814C3F82415D2F80C141D
:109F9000C3F82815D2F81014C3F82C15D2F81414ED
:109FA000C3F83015D2F81814C3F83415D2F81C14BD
:109FB000C3F84015D2F82014C3F84415D2F824147D
:109FC000C3F84815D2F82814C3F84C15D2F82C144D
:109FD000C3F85015D2F83014C3F85415D2F834141D
:109FE000C3F86015D2F83814C3F86415D2F83C14DD
:109FF000C3F86815D2F84014C3F86C15D2F844249D
:10A00000C3F87025FFF72CFF28B1444B444A1B6866
:10A0100003F04F031360FFF723FF48B14FF0804375
:10A02000D3F80024D20744BF6FF00102C3F8002424
:10A03000354B1B68062B0CD1354B1B68033B032BA0
:10A0400007D8384AD35C23B1374A136843F4806396
:10A050001360364AD2F8883043F47003C2F888306F
:10A06000BFF34F8FBFF36F8F4FF01023D3F8002251
:10A07000002A03DBD3F80432002B2FDA2C4B012209
:10A08000C3F80425D3F80024002AFBD04FF0102297
:10A090001521C2F80012D3F80024002AFBD04FF09B
:10A0A00010231522C3F80422214B1A46D3F80014BA
:10A0B0000029FBD00021C3F80415D2F80034002B8E
:10A0C000FBD0BFF34F8F19491A4BCA6802F4E06204
:10A0D0001343CB60BFF34F8F00BFFDE7164B174A0A
:10A0E0001A6008BD240300104035014074C00740C9
:10A0F0000DF0ADBA440200103C050040F0ED00E068
:10A10000A00500401056004030010010E00F00F0A4
:10A11000340100105A28030000C00040580200100B
:10A12000E40E00405E2803003C17004000ED00E014
:10A1300000E001400400FA05102B00200090D0033D
:10A1400038B5074C051E04F1080318BF1C462368E8
:10A150002BB11A6822605B6828469847F7E738BD3C
:10A160007C34002020B9054B01225A70FFF7E8BF6C
:10A17000012802D1014A9070F8E77047743400203A
:10A1800020B9034B01225A70FFF7DABF704700BFB6
:10A190007434002038B50E4C2378B3B90D48636091
:10A1A000A3602361E36000F0E5F8054606F0A8FF30
:10A1B00008B900F0EBF801232370074BD3F8003403
:10A1C0000BB10123A370284638BD8525F5E700BFF4
:10A1D0007434002065A102000000014037B50D4C29
:10A1E00000230DF107008DF80730FDF743FAE3680F
:10A1F000013BE360E36833B9074BD3F8005415B96A
:10A2000000F0D6F8A5709DF80700FDF757FA03B0E7
:10A2100030BD00BF7434002000000140012813B598
:10A220000CD0032820D038B9124B0122C3F880206B
:10A23000BFF34F8FBFF36F8F02B010BD0E4C0023E2
:10A240000DF107008DF80730FDF714FA23780BB9EC
:10A25000FFF7A0FFE3689DF807000133E3600123E7
:10A26000A370FDF72BFAE7E700F090F8FFF7B6FFD1
:10A27000E2E700BF00E100E0743400201FB503787E
:10A280008DF800304368019383688DF80830C36807
:10A29000054A0393054B684653F8213052F82110C4
:10A2A000984705B05DF804FB883400208C3400200A
:10A2B0001FB503788DF800304368019383688DF8EB
:10A2C0000830C368054A0393054B684653F82130AC
:10A2D00052F82110984705B05DF804FB883400203F
:10A2E0008C340020F0B5194B90F800C091F81DE0B7
:10A2F00043F82C20164B16460A6943F82C20154BC0
:10A3000003F80CE00C4607460FCC89B06D460FC52C
:10A3100094E80F0085E80F00CDF810C0BEF1000FE3
:10A3200009D0002E0C4A694608BF3246381D00F09D
:10A330008BFE09B0F0BD002E084A694608BF3246C0
:10A3400007F10C0000F05CFCF3E700BF8C34002048
:10A3500088340020903400207DA20200B1A20200C7
:10A3600000F18040002382B0036003680193019BE9
:10A3700002B07047044A137923B90121106091801B
:10A38000184670478520704794340020074B1A68A0
:10A39000D20704D4C02283F8002301221A604FF0B0
:10A3A00080430122C3F81825704700BF00E100E098
:10A3B0004FF0804208B50223C2F808334FF4827090
:10A3C000FFF7CEFF034B01211960D2F81834DB03ED
:10A3D000FBD408BD0C000040124B1B6810B573B1D4
:10A3E0004FF48070FFF7BCFF4FF080430122C3F8A9
:10A3F00008230D4B587910B95A711B6898470B4BBD
:10A400001B6873B14FF48270FFF7AAFF4FF08043CF
:10A410000222C3F80823044BBDE810401B6801204A
:10A42000184710BD00010040943400200401004092
:10A4300000F1804000F5C040002382B00360036853
:10A440000193019B02B07047800000F1A040D0F85A
:10A45000002722F44032C0F80027D0F8003743EA42
:10A460000141C0F800177047054B4FF0FF32072835
:10A4700043F8202084BFC01880F84820704700BFF0
:10A480009C340020C208054900F0070001238340E6
:10A49000885C20EA03008854704700BFF034002035
:10A4A00010B51A4C94F858306BBB4FF0FF3222FABB
:10A4B00003F1C90748BFE11803F1010348BF81F860
:10A4C0003020202BF3D10021C8B2FFF7CDFF01319E
:10A4D0000C29F9D1042200210D4807F0BBF80D4BDF
:10A4E000C02283F8062340221A604FF4BE70FFF7A3
:10A4F0009FFF094B4FF00042C3F80423012384F867
:10A500005830002010BD0820FCE700BF9C3400201C
:10A51000F034002000E100E000600040034B93F8BD
:10A520005800003818BF0120704700BF9C3400203D
:10A5300030B52E4B1A1892F93040013453D18C7833
:10A54000002C4CD01C46002254F8045B013541D14C
:10A550001C1884F83020002443F82240920002F1B5
:10A56000804202F5C0420B78D2F810554C7825F4A1
:10A5700098151B04240525F4F85504F4801403F4FD
:10A580004033C2F8105523430402D2F8105504F4A6
:10A59000F85423432B43C2F810354A780123012A8B
:10A5A0004FF0A04203FA00F30CBFC2F80835C2F81E
:10A5B0000C3500F5E073032142F82310C2080C4962
:10A5C000012300F0070003FA00F08B5C1843885465
:10A5D000002003E00132082AB6D1042030BDFE235A
:10A5E00082F83030D9E70820F8E700BF9C3400201B
:10A5F000F034002038B5164C2518014695F8300087
:10A60000072809D8FFF730FF95F93030114A03F5D4
:10A61000A273002042F823006318FF2204EBD10448
:10A6200083F8302094F8542001F007000123834080
:10A630001A420BD04FF0A04301F5E072022043F81C
:10A640002200BDE838400846FFF71CBF38BD00BFF8
:10A650009C34002000600040074B184490F93030D3
:10A660009B0003F1804303F5C043D3F8102542F06B
:10A670000302C3F8102570479C340020074B184490
:10A6800090F930309B0003F1804303F5C043D3F8C9
:10A69000102522F00302C3F8102570479C340020D7
:10A6A000054B184490F930000C308000C0B200F126
:10A6B000804000F5C04070479C340020054B184492
:10A6C00090F9300018308000C0B200F1804000F5F1
:10A6D000C04070479C3400200A4B1844003990F960
:10A6E00030304FEA830303F1804303F5C04318BFC2
:10A6F0000121D3F8102522F4801242EA0152C3F856
:10A70000102570479C340020F0B5364D2C1894F974
:10A710003040002C64DA8C78C4F34004002C0BBF6A
:10A72000082300230C260826B34201D10420F0BDE3
:10A7300055F8237001373FD12E1845F8232086F8AD
:10A74000303014B9EA1882F848008A78540713D4D4
:10A75000D60733D5820002F1A042D2F8004724F098
:10A760000204C2F80047204EC20800F00707012487
:10A77000BC40B75C3C43B4548A780C7812F00202B7
:10A7800025D09B0003F1804303F5C0430202D3F8B8
:10A79000101521F4473121F44071C3F81015240439
:10A7A000D3F8101502F4F85204F4403422430A435B
:10A7B000C3F810250020BAE70133B5E74C7800F55F
:10A7C000E0724FF0A046A40046F82240CBE7083BD9
:10A7D0002B4493F8501041EA841483F85040E9E781
:10A7E0000820A4E79C340020F034002038B51F4C2A
:10A7F000251895F93020072A16DD224492F84830B2
:10A800009B09032B0BD14FF0A043D3F81015C14087
:10A8100001F001010231BDE83840FFF715BE012B00
:10A820000CBF02210321F6E7D3B2072B1CD89300FB
:10A8300003F1804303F5C043D3F8100540F0010055
:10A84000C3F8100502F14000800080B2FFF7F0FD70
:10A8500051B195F9303054F823302BB1012303FA6C
:10A8600002F2034BC3F8042338BD00BF9C34002020
:10A87000006000404FF0A043D3F8103523FA00F0F9
:10A8800000F00100704700002DE9F74F00244E4D05
:10A8900001944FF48072012102F1804303F5C0431B
:10A8A00090B21B68012B06D1D5F804330B4202D0BD
:10A8B000FFF7BEFD0C430432B2F5907F4FEA410131
:10A8C000EAD1424B1B68012B0CD14FF4BE70FFF74D
:10A8D000AFFD4FF0A04344F00044D3F8202501928F
:10A8E000C3F8202514F0FF0F1AD0394F0025012698
:10A8F000344210D0AB0003F1804303F5C043D3F8DA
:10A900001005D3F8101557F8253023B1C1F30141D4
:10A91000C0F3042098470135082D4FEA4606E7D1D9
:10A92000002C48DA2A4D4FF0A0482A4E4FF000097B
:10A93000012716F9013B5A1C31D0C3F3C20202A908
:10A940000A44DCB212F8042C03F03F0A03F00703B8
:10A9500007FA03F31A4222D00AF5E073504658F87A
:10A960002330C3F3014BBBF1020F0CBF03210221C3
:10A97000FFF76AFD07FA0AF3C8F8203505EB0A036A
:10A9800093F9303055F823304BB1A109032904D095
:10A99000BBF1020F12D1012901D15046984709F1AC
:10A9A0000109B9F1040FC4D1D8F820350193C8F8D2
:10A9B0002035002BB9D103B0BDE8F08FBBF1030FF8
:10A9C000EDD10229E8E700BF006000407C61004053
:10A9D0009C340020EC340020014B1B68184700BF5A
:10A9E000F83400200E4B984237B50C4602D00020B8
:10A9F00003B030BD00230DF107008DF80730FCF7E0
:10AA000039FE084B1D7915B901221C601A719DF899
:10AA10000700FCF753FE002DE9D01120E8E700BF46
:10AA200000200040F83400200023435082B04358F7
:10AA30000193019B02B070470A4610B54FF48E7126
:10AA4000FFF7F2FF136A9168C95C136A013313625E
:10AA5000C0F81C1510BD024608B500684FF492718D
:10AA6000FFF7E2FF4FF484711068FFF7DDFF136812
:10AA700001221A6008BD8B690A4610B54FF4847133
:10AA800023B9FFF7D1FFD0F8183510BDFFF7CCFF81
:10AA9000536AD168D0F81805C854536A0133536219
:10AAA000F3E700001FB501238DF80030044BCDE91A
:10AAB0000110D3E900126846904705B05DF804FB29
:10AAC0000035002030B54C48D0F8043313F4007F33
:10AAD00085B005464DD0D0F82431002B49D04FF435
:10AAE0009271FFF7A1FF4FF40173C0F80833434B95
:10AAF00093F829200AB9012242603F4902228DF8C9
:10AB00000020D1F88024C1F8802403929A6902922F
:10AB1000DA6801920022C3E906226846D3E90012EE
:10AB200090473548D0F81C315BB134494A690B6A0B
:10AB30009A420A464AD991F82830002B46D1FFF7AD
:10AB40007BFF2D48D0F844318BB14FF4A271FFF751
:10AB50006BFF2A4B93F829200AB1012202609A69FF
:10AB60002AB10022586AD9689A61FFF79BFF05B0A5
:10AB700030BDD5F804335B07D3D5D5F80831002BA9
:10AB8000CFD01E4C1C482146FFF775FF636AA269AF
:10AB90009A422346C5D1E269E1684AB12369E3607C
:10ABA0000023606AA261E3616362FFF77BFFB8E79D
:10ABB00094F829200AB901226A600F4A4FF4017003
:10ABC000C2F808030022586A9A61EEE70A484FF477
:10ABD0008E71FFF729FF5369002BB2D051690291A2
:10ABE000002391688DF80030019153616846D2E9E5
:10ABF00000139847A5E700BF002000400035002063
:10AC00002DE9F843544B057991462C2202FB05327D
:10AC1000064692F82A200C469846002A40F0988072
:10AC20004E490068FFF7DEFE0746002840F092809C
:10AC300021683368481C0BD04FF0A04001228A40A5
:10AC4000C0F8082501F5E0724FF0030C40F822C06F
:10AC50006068421C1FBF00F5E0724FF0A04C4FF03F
:10AC6000000E4CF822E0A269C3F8242594F814C021
:10AC7000627DBCF1010F4CEA0202C3F86C25C3F8F7
:10AC80001405C3F80C151DD1A1684A1C1FBF01F59E
:10AC9000E0724FF0A0404FF0000C40F822C0E26894
:10ACA000501C0BD04FF0A04C01209040CCF8080570
:10ACB00002F5E0704FF0030E4CF820E0C3F80825D1
:10ACC000C3F810152C236B4308EB0302C2F8049061
:10ACD000226948F80320B9F1000F21D03068247FA1
:10ACE0004FF48E71FFF7A0FE4FF4A2713068FFF7AA
:10ACF0009BFE32681A4BC2F80433110B42F3073241
:10AD00006301002ADBB21EDB1648841884F8003386
:10AD10000123520901F01F0103FA01F140F822104A
:10AD200033680422C3F800252C2303FB058300228B
:10AD3000C3E9062283F829205A61012283F82A20D8
:10AD40003846BDE8F883084A01F00F015354E7E79D
:10AD50000827F5E71127F3E700350020C5AA020010
:10AD60008000020000E100E014ED00E02DE9F04772
:10AD7000204F90F804904FF02C0808FB097405460A
:10AD80006669002E34D162610068A16026624FF4CA
:10AD90008E7184F82860FFF747FE286801238360DE
:10ADA0002146FFF749FE6368A0468BB92868D4F8AE
:10ADB00014A0236A9A4511D82A68D2F81C31002BB6
:10ADC000FBD00123D3602C2303FB097300225A61BB
:10ADD0003046BDE8F08794F828303BB9D0F81C31F4
:10ADE000002BF8D04146FFF727FEE2E70F26EAE7FF
:10ADF0001126EDE7003500200379044A2C2101FBE0
:10AE000003235869003818BF01207047003500201F
:10AE10002DE9F843394F05792C2303FB05730646CA
:10AE20005C6824B103684FF40170C3F808032C2355
:10AE300003FB0573986950B1D86900283ED024B14E
:10AE400033684FF40172C3F80423112433E09A618C
:10AE5000D9605862D8612C2303FB057393F829301D
:10AE60001BB910B93046FFF7F6FD4FF02C0909FB6E
:10AE700005783068D8F80430002B34D14FF4A27133
:10AE8000C146FFF7D1FD3068D0F82431D0F8082151
:10AE9000D0F84441B2B90CB9002BF4D02C2202FBFB
:10AEA00005750022AA6123BB2CBB95F829103368D5
:10AEB0000122B1B11A602046BDE8F8831961DA6158
:10AEC0000120C8E7002BE9D1002CE7D14946FFF764
:10AED000D2FDD8F82430D8F818209A42D3D8234687
:10AEE000DCE75A60E7E74FF40173C0F8043300244D
:10AEF000E1E70324DFE70F24DDE700BF0035002092
:10AF00000023435082B043580193019B02B0704725
:10AF10001FB501238DF80030044BCDE90110D3E9B2
:10AF200000126846904705B05DF804FB2C35002000
:10AF30007FB5434AD2F82461002E60D010464FF40A
:10AF40009271FFF7DDFF02238DF80030D2F88034D4
:10AF5000C2F880340393D2F83C350293394BDA6857
:10AF600001920022C3E906226846D3E90012904705
:10AF70003348D0F8443173B14FF4A271FFF7C0FFEA
:10AF8000304B9A693AB10022C3E90622D968D0F859
:10AF90003C05FFF7BDFF2A48D0F82031ABB14FF494
:10AFA0009071FFF7ADFF0123C360264B5A6962B170
:10AFB000D0F84C150291002299688DF8002001917B
:10AFC0005A616846D3E9001290471D48D0F85831BD
:10AFD0009BB14FF4AC71FFF793FF1A4B5A6962B102
:10AFE000D0F84C150291002299688DF8002001914B
:10AFF0005A616846D3E90012904704B070BDD2F898
:10B000001031002BB4D04FF488711046FFF778FF51
:10B010000C4BD2F83C0599698842A9D1DC69D96802
:10B0200064B1D2F8005225F02005C2F800521A6926
:10B030009C61DA60DE61FFF76BFF99E79C61FAE7DC
:10B04000002000402C3500202DE9F8435B4B0679A9
:10B050009146242202FB0632044692F820200D4637
:10B060009846002A40F0A58055490068FFF7BAFCD1
:10B070000746002840F09F8029682368481C0BD0B1
:10B080004FF0A04001228A40C0F8082501F5E07287
:10B090004FF0030C40F822C06868421C1FBF00F547
:10B0A000E0724FF0A04C4FF0000E4CF822E0AA697D
:10B0B000C3F8242595F814C06A7DBCF1010F4CEA51
:10B0C0000202C3F86C25C3F80C15C3F814051DD192
:10B0D000A9684A1C1FBF01F5E0724FF0A0404FF075
:10B0E000000C40F822C0EA68501C0BD04FF0A04C76
:10B0F00001209040CCF8080502F5E0704FF0030EF7
:10B100004CF820E0C3F80825C3F810152423734336
:10B1100008EB0302C2F804902A6948F80320B9F149
:10B12000000F30D020682A7F4FF48871FFF7E8FEC7
:10B1300020684FF49071FFF7E3FE20684FF492719E
:10B14000FFF7DEFE20684FF4A271FFF7D9FE4FF43F
:10B15000AC712068FFF7D4FE23681A49C3F80413C2
:10B16000190B43F307335201002BD2B21CDB1648F4
:10B17000C51885F8002301225B0901F01F0102FABE
:10B1800001F140F8231023680822C3F80025242386
:10B1900003FB06830022C3E906225A61012283F8D9
:10B1A00020203846BDE8F883084B01F00F015A54BF
:10B1B000E9E70827F5E71127F3E700BF2C35002062
:10B1C00031AF02001003420000E100E014ED00E0A6
:10B1D00001F06043B3F1005F2DE9F041064638D13C
:10B1E0001E4B0779242505FB073598466C69002C12
:10B1F00031D16A610068A9604FF49071FFF780FE59
:10B200004FF4AC713068FFF77BFE33686A69A96858
:10B21000C3F84415C3F8482501229A606A68AAB9A0
:10B22000D3F82021D3F858411AB9002CF8D00F24B4
:10B2300007E0002CFBD10122DA60D3F85821002A64
:10B24000FBD0242303FB078700237B612046BDE856
:10B25000F0811024FAE71124F8E700BF2C35002014
:10B260000379044A242101FB03235869003818BFDD
:10B27000012070472C350020F8B501F06043B3F190
:10B28000005F04460F465ED10379304D242101FB57
:10B290000351496821B100684FF40476C0F808638F
:10B2A000242000FB03539E6956B1D869002839D089
:10B2B00021B123684FF40472C3F80423112030E055
:10B2C0009A61DF60DE6120684FF48871FFF718FE35
:10B2D00020684FF4A271FFF713FE2368C3F834759A
:10B2E000C3F8382516BB01221A602179242202FBFB
:10B2F000015252680ABBD3F81041D3F84421D3F865
:10B300002401144302D10028F5D02246242303FB54
:10B3100001550023984218BF03209A42AB6118BF21
:10B320000F20F8BD1F61DA610126CCE7D3F80022B7
:10B3300042F02002C3F80022D7E74FF40472C3F8AA
:10B3400004230020EDE71020EBE700BF2C350020A0
:10B350002DE9F743002406460F4600F5A0754FF48B
:10B360008038A1462B688BB1D6F8043308FA04F272
:10B370001A420BD0C5F800902B680193019BA300E3
:10B3800003F5A07398B2D7E9003198470134042C33
:10B3900005F10405E6D103B0BDE8F083F7B5067901
:10B3A0002F4D0C237343EF183C7A002C55D1EA50F3
:10B3B0004B687B60477903682246A446D4B2A74213
:10B3C0003CD8CA7843F307345201002CC3F3073347
:10B3D000D2B23DDB234F07EB040C8CF80023012293
:10B3E000640903F01F0302FA03F347F824300368EB
:10B3F0004A78D3F8040502F0030220F00300024368
:10B40000C3F80425D3F808058A7820F0030002F079
:10B4100003020243C3F80825D3F810050A7820F088
:10B420000F0102F00F020A43C3F810250C2303FB9F
:10B43000065501232B72002003B0F0BD940004F5E3
:10B44000A074013243F804C01C590194019CB5E773
:10B45000054C03F00F03E254C9E70820ECE700BFF6
:10B460005035002000E100E014ED00E00368012207
:10B470001A600379034A0C2101FB032302221A728A
:10B48000704700BF503500200368044901221A614B
:10B4900003790C2000FB03131A727047503500200B
:10B4A00038B503681A0B43F30733002B04460CDB53
:10B4B00002F01F015B0901228A4020330D4941F847
:10B4C0002320BFF34F8FBFF36F8F23680025D3F87E
:10B4D0000022C3F800524FF0FF32C3F80823204681
:10B4E000FFF7D2FF2379044A0C2101FB03231D72CD
:10B4F00038BD00BF00E100E05035002003680122A4
:10B50000DA60704737B54FF4803400688C407BB107
:10B510008B0003F5A0730025C550C3580193019B10
:10B52000C0F8044301F5A87140F8212003B030BDF4
:10B53000C0F80843F6E770B4046840F20116D4F886
:10B5400000528E4025EA0605C4F80052D4F8005295
:10B550002B43C4F800329DF80C3070BCFFF7D2BF0B
:10B560008B0003F5A07302689BB20020D05082B01C
:10B57000D3580193019B4FF4803303FA01F1C2F8D1
:10B58000041302B0704702684FF4803303FA01F1EC
:10B59000C2F808137047000001490248FFF7D8BEFF
:10B5A000503500200080004001490248FFF7D0BE1E
:10B5B0005C3500200090004001490248FFF7C8BEFA
:10B5C0006835002000A000402DE9F74F4FF000093A
:10B5D000154D164F06464FF0040AC8465FFA89FB20
:10B5E00001240DF1070004FA0BF48DF80780FCF735
:10B5F00041F82C4208D03B6814EA030201BF234300
:10B600003B6086F800B092469DF80700FCF756F8BC
:10B61000BAF1000F03D0A54309F10109DED150466C
:10B6200003B0BDE8F08F00BFFFFF010074350020BC
:10B63000012337B503FA00F5C5F31003ABB10C4B8A
:10B640000024C3F808550DF107008DF80740FCF7FA
:10B6500011F8084B186820EA050018609DF80700EB
:10B66000FCF72CF8204603B030BD0720FBE700BFF5
:10B6700000F001407435002010B5A1B19AB101234A
:10B680008340C3F3100484B10A4C246823420ED0D3
:10B69000C00000F1804000F5F830C0F81015C0F887
:10B6A0001425002010BD0E20FCE70720FAE7082033
:10B6B000F8E700BF74350020012202FA00F3580CAD
:10B6C000400440B91BB1064A1268134205D0054A2E
:10B6D000C2F804357047072070470820704700BF44
:10B6E0007435002000F00140012202FA00F3580CEA
:10B6F000400440B91BB1064A1268134205D0054AFE
:10B70000C2F808357047072070470820704700BF0F
:10B710007435002000F00140034B187810B9012265
:10B720001A707047852070477835002000F18040FE
:10B7300000F5E040002382B0036003680193019BA1
:10B7400002B07047F0B5504B504C1B6885B0002BD1
:10B750003DD04FF4827094F82E20FFF7E7FF2AB314
:10B7600094F82F3013BB4A4B1B68002B33D04FF497
:10B770008070FFF7DBFF638B94F82D108B424FD95D
:10B7800022895B1A9BB292B26383D31A626802EB7E
:10B790004303404AC2F82C36C2F830164FF4827088
:10B7A000FFF7C4FF3C4B01221A6014E06368029368
:10B7B0002389ADF80C30E36800218DF8041023BB19
:10B7C0002374236801A89847002384F82F3094F845
:10B7D0002E30002BC7D1314B1B685BB14FF4887002
:10B7E000FFF7A4FF0023237402238DF8043001A87F
:10B7F000236898472A4B1B68EBB14FF48A70FFF718
:10B8000095FF0023237405B0F0BD208B6083636037
:10B810002081E160002AD4D11E4B01221A60D0E7BA
:10B82000BCD1E368012284F82F2013B10022628387
:10B83000AFE76383B2E766694FF000470125002E4A
:10B84000E1D0B6FA86F227FA02F34632920026EAEF
:10B85000030602F1804303F5E0431B68002BEED0A2
:10B860001046FFF763FFA2F58C72D30882F0040242
:10B87000C2F380028DF808308DF8045023688DF8EB
:10B88000092001A89847DAE7047100407C350020C0
:10B8900000710040007000400470004010710040D2
:10B8A0001471004038B5204A92F82C300446002B21
:10B8B00037D111601D490078C1F8F0056078C1F8F2
:10B8C000F4050125137482F82D30536182F82F306E
:10B8D000E07882F82E006FF0004382F82C504FF48D
:10B8E0008270C1F80833FFF721FF4FF48070FFF733
:10B8F0001DFF4FF48A70FFF719FFA3780C485B0116
:10B90000DBB280F80733802303600223C1F80433DD
:10B9100092F82E300BB1C1F80453C1F80055002045
:10B9200038BD0820FCE700BF7C35002000700040D7
:10B9300000E100E070B52A4B1A7C02F0FF05002AF6
:10B940004BD10A79012A9CBF264CC4F8005500F15E
:10B950000C0503EB4504247924B993F82D400134F8
:10B9600083F82D4003EB4503CC790D7A8E781C715A
:10B970005D714B7836021B0106F4E06603F030037C
:10B9800033430E7806F003063343CE78360306F4CD
:10B9900080563343160406F4E02633434E79897902
:10B9A000360506F480160906334301F080710B4317
:10B9B0000C4901EB0016000100F1804000F5E04069
:10B9C000012AC6F81835C0F81455C0F8104502D839
:10B9D0000123C1F80035002000E0112070BD00BF38
:10B9E0007C35002000700040054B93F82E30002B72
:10B9F00014BF0020042000F1804000F5E0407047B3
:10BA00007C35002070B5264A264B05461220C2F828
:10BA100008031C7C022C03D1C2F80403112070BD62
:10BA2000187C01281DD1D86818B10223C2F804334C
:10BA3000F4E7DD60198393F82E3063B91A4A13686E
:10BA4000002BFCD04FF48070FFF770FE144BC3F84E
:10BA50002C56C3F83016124B0222C3F804230020E0
:10BA6000DDE7022093F82E40C2F8040301260020EF
:10BA70001E745D601981D8603CB1598393F82D30F4
:10BA8000C2F82C56C2F83036C9E7C2F82C564FF42B
:10BA90008070C2F83016FFF749FE20461660BEE7F8
:10BAA000007000407C3500200071004038B9012A48
:10BAB00007D101290AD00246022909D059B107202D
:10BAC00070470129F8D1054B1A7070470E22FAE72A
:10BAD000024B5A707047014B9A707047AC3500208A
